:100000000C942A000C943F000C943F000C943F0089
:100010000C943F000C943F000C943F000C943F0064
:100020000C943F000C943F000C943F000C943F0054
:100030000C943F000C943F000C943F000C943F0044
:100040000C943F000C943F000C943F000C943F0034
:100050000C943F0011241FBECFE5D8E0DEBFCDBF1A
:1000600010E0A0E6B0E0E2EFF2E002C005900D92F1
:10007000A637B107D9F70E9434010C9477010C948C
:10008000000098B3997F98BB9BB39F70282F207F67
:10009000922B9BBB98B3986098BB2FEF30E792E010
:1000A000215030409040E1F700C0000098B3977FA6
:1000B00098BB2BB330E1839FC0011124922F9F7016
:1000C000892B8BBB88B3886088BB8FEF90E722E0D9
:1000D000815090402040E1F700C0000088B3877F46
:1000E00088BB0895CF93DF93C82FD62F813021F49A
:1000F0008FE7860F0E944100C23021F48FEB8D0FF5
:100100000E944100DF91CF91089598B39B7F98BBE7
:1001100098B3926098BB9BB39F70282F207F922B3F
:100120009BBB98B3986098BB2FEF30E792E02150CB
:1001300030409040E1F700C0000098B3977F98BB33
:100140002BB330E1839FC0011124922F9F70892B24
:100150008BBB88B3886088BB8FEF90E722E081502B
:1001600090402040E1F700C0000088B3877F88BB43
:10017000089588E10E94410008958CE10E944100A9
:10018000089581E00E944100089587B38E6087BB87
:1001900088B3817F88BB8FEF8ABB80E00E94850097
:1001A0002FEF86E791E0215080409040E1F700C0BA
:1001B00000008FEC97E00197F1F700C000000E946B
:1001C000C10083E00E9441008FE19EE40197F1F7B6
:1001D00000C0000083E00E94410087E592E00197A3
:1001E000F1F700C0000083E00E94410082E00E941D
:1001F000410088E20E94410086E00E94410080E8C0
:100200000E9441008EE00E9441000895EF92FF920B
:100210000F931F93CF93DF937C01C0E0D0E016C013
:100220000E948500C031D10529F461E081E00E947F
:1002300072000BC0005211090230110530F40E9407
:10024000C10061E081E00E94720021968E01F701F9
:10025000EC0FFD1F80818111E3CFDF91CF911F91C2
:100260000F91FF90EF9008950E94C50061E070E04B
:1002700081E090E00E94720080E690E00E9406011A
:1002800061E070E082E090E00E9472008BE690E016
:100290000E9406010E94BD002FE382E49FE02150EE
:1002A00080409040E1F700C000000E94BD002FE3B5
:1002B00082E49FE0215080409040E1F700C00000C0
:1002C0000E94B9002FE382E49FE0215080409040DB
:1002D000E1F700C000000E94B9002FE382E49FE034
:1002E000215080409040E1F700C00000D3CFF89447
:0202F000FFCF3E
:1002F2002046616D2041796D616E002020204865A5
:060302006C6C6F2000008E
:00000001FF
