:100000000C9431000C9443000C9443000C94430076
:100010000C9443000C9443000C9443000C94430054
:100020000C9443000C9443000C9443000C94430044
:100030000C9443000C9469000C94BB000C94920047
:100040000C9443000C9443000C9443000C94430024
:100050000C94430080017E018201840188018601A5
:100060008A0111241FBECFE5D8E0DEBFCDBF20E05E
:10007000A0E6B0E001C01D92A837B207E1F70E94E8
:1000800045000C9465040C940000E1E7F0E0108258
:10009000118281E0858384831282E0E6F0E093E0C0
:1000A00090838183158294831282138280E895E283
:1000B000A0E0B0E087839087A187B2870E94E40028
:1000C0000E94DD010E94CD010E944C0280E090E080
:1000D00008951F920F920FB60F9211242F933F9302
:1000E0004F935F936F937F938F939F93AF93BF9340
:1000F000EF93FF93E0916B00F0916C00309709F063
:100100000995FF91EF91BF91AF919F918F917F9151
:100110006F915F914F913F912F910F900FBE0F9074
:100120001F9018951F920F920FB60F9211242F93C4
:100130003F934F935F936F937F938F939F93AF936F
:10014000BF93EF93FF93E0916F00F09170003097B1
:1001500009F00995FF91EF91BF91AF919F918F9118
:100160007F916F915F914F913F912F910F900FBEB3
:100170000F901F9018951F920F920FB60F92112497
:100180002F933F934F935F936F937F938F939F939F
:10019000AF93BF93EF93FF93E0916D00F0916E00EA
:1001A000309709F00995FF91EF91BF91AF919F9121
:1001B0008F917F916F915F914F913F912F910F9010
:1001C0000FBE0F901F901895CF92DF92EF92FF9283
:1001D0000F931F93CF93DF9380916000823051F093
:1001E000833031F0813011F0D0E005C0D8E003C099
:1001F000D8E101C0D0E180916100813039F120F077
:10020000823009F445C067C0609167007091680052
:100210008091690090916A000E94640320E030E0C0
:1002200040E851E40E94F2039B01AC0160E074E2FB
:1002300084E799E40E94C30220E030E040E05FE3FD
:100240000E9456026B017C01C0E04BC060916700C8
:10025000709168008091690090916A000E94640327
:1002600020E030E040E051E40E94F2039B01AC0149
:1002700060E074E284E799E40E94C30220E030E089
:1002800040E05FE30E9456026B017C01C0E029C0A0
:1002900000E610E0F80167817085818592850E94F3
:1002A00064039B01AC010E9457029B01AC0160E01A
:1002B00074E284E799E40E94C30220E030E040E069
:1002C0005FE30E9456026B017C01F8018681813058
:1002D00039F0C6E006C0C12CD12C7601C0E001C0C7
:1002E000C7E0E09163008E2F90E0FC013197E7308A
:1002F000F10588F4E65DFF4F0C945F04D0680BC0F5
:10030000D06409C0D06207C0D06C05C0D06A03C0F9
:10031000D06601C0D06E80916400823059F018F42C
:10032000813031F00DC0833039F0843039F008C0AD
:10033000C26006C0C46004C0C66002C0C660D460AB
:1003400080916500833079F028F4813041F082306B
:1003500041F00EC0843049F0853049F009C0C860D2
:1003600007C0C06205C0C86203C0C06301C0C863E3
:10037000C701B6010E94350370BDC701B6010E94D6
:10038000350369B9C0BDDAB9DF91CF911F910F91E3
:10039000FF90EF90DF90CF9008955F9BFECF8BB1E1
:1003A00080916400843021F48AB180E090E002C042
:1003B00080E090E02CB1822B08951DB81EB880918A
:1003C0007100811168C08DB180648DB98091720017
:1003D000882319F0813041F00AC08DB180618DB958
:1003E00087B3806B87BB03C087B3806487BB809172
:1003F0007400811103C08DB180628DB98091760047
:10040000811103C08DB180688DB9809173008230F5
:1004100041F0833069F0813089F48DB184608DB909
:100420000DC08DB188608DB988B3806888BB06C067
:100430008DB18A608DB988B3806888BB8091750062
:100440008330B9F028F4882349F0823059F00895B8
:100450008530B9F090F08630D9F008958EB1816082
:100460008EB908958DB181608DB98EB181608EB9DC
:1004700008958DB181608DB908958DB183608DB976
:1004800008958DB183608DB98EB181608EB9089564
:100490008DB183608DB908958FB9769B03C081E0DB
:1004A00080937700779BFECF8FB108955058BB277C
:1004B000AA270E946E020C94B8030E94AA0338F087
:1004C0000E94B10320F039F49F3F19F426F40C94F4
:1004D000A7030EF4E095E7FB0C94A103E92F0E941B
:1004E000C90358F3BA17620773078407950720F00A
:1004F00079F4A6F50C94EB030EF4E0950B2EBA2FCD
:10050000A02D0B01B90190010C01CA01A001112419
:10051000FF27591B99F0593F50F4503E68F11A16C5
:10052000F040A22F232F342F4427585FF3CF469556
:1005300037952795A795F0405395C9F77EF41F1678
:10054000BA0B620B730B840BBAF09150A1F0FF0F42
:10055000BB1F661F771F881FC2F70EC0BA0F621F2E
:10056000731F841F48F4879577956795B795F7951E
:100570009E3F08F0B0CF9395880F08F09927EE0FB3
:100580009795879508950E94D7020C94B8030E940E
:10059000B10358F00E94AA0340F029F45F3F29F00C
:1005A0000C94A10351110C94EC030C94A7030E942A
:1005B000C90368F39923B1F3552391F3951B550BA8
:1005C000BB27AA2762177307840738F09F5F5F4F26
:1005D000220F331F441FAA1FA9F335D00E2E3AF065
:1005E000E0E832D091505040E695001CCAF72BD07D
:1005F000FE2F29D0660F771F881FBB1F26173707CE
:100600004807AB07B0E809F0BB0B802DBF01FF27FF
:1006100093585F4F3AF09E3F510578F00C94A10338
:100620000C94EC035F3FE4F3983ED4F38695779502
:100630006795B795F7959F5FC9F7880F911D9695B8
:10064000879597F90895E1E0660F771F881FBB1F14
:10065000621773078407BA0720F0621B730B840BC1
:10066000BA0BEE1F88F7E09508950E94D10388F039
:100670009F5798F0B92F9927B751B0F0E1F0660F66
:10068000771F881F991F1AF0BA95C9F714C0B130A7
:1006900091F00E94EB03B1E008950C94EB03672FF7
:1006A000782F8827B85F39F0B93FCCF386957795D6
:1006B0006795B395D9F73EF49095809570956195BF
:1006C0007F4F8F4F9F4F0895E89409C097FB3EF4EA
:1006D00090958095709561957F4F8F4F9F4F99238F
:1006E000A9F0F92F96E9BB279395F695879577950D
:1006F0006795B795F111F8CFFAF4BB0F11F460FFCD
:100700001BC06F5F7F4F8F4F9F4F16C0882311F024
:1007100096E911C0772321F09EE8872F762F05C038
:10072000662371F096E8862F70E060E02AF09A95D3
:10073000660F771F881FDAF7880F9695879597F9C8
:10074000089597F99F6780E870E060E008959FEF53
:1007500080EC089500240A94161617061806090658
:10076000089500240A941216130614060506089527
:10077000092E0394000C11F4882352F0BB0F40F4AF
:10078000BF2B11F460FF04C06F5F7F4F8F4F9F4FEF
:10079000089557FD9058440F551F59F05F3F71F071
:1007A0004795880F97FB991F61F09F3F79F08795D8
:1007B0000895121613061406551FF2CF4695F1DF61
:1007C00008C0161617061806991FF1CF86957105F1
:1007D000610508940895E894BB2766277727CB0125
:1007E00097F908950E9405040C94B8030E94AA0387
:1007F00038F00E94B10320F0952311F00C94A1036E
:100800000C94A70311240C94EC030E94C90370F309
:10081000959FC1F3950F50E0551F629FF001729FA5
:10082000BB27F00DB11D639FAA27F00DB11DAA1FB4
:10083000649F6627B00DA11D661F829F2227B00D01
:10084000A11D621F739FB00DA11D621F839FA00D8C
:10085000611D221F749F3327A00D611D231F849FDC
:10086000600D211D822F762F6A2F11249F57504033
:100870009AF0F1F088234AF0EE0FFF1FBB1F661FAE
:10088000771F881F91505040A9F79E3F510580F077
:100890000C94A1030C94EC035F3FE4F3983ED4F373
:1008A000869577956795B795F795E7959F5FC1F71B
:1008B000FE2B880F911D9695879597F90895EE0F59
:0E08C000FF1F0590F491E02D0994F894FFCFEE
:00000001FF
