:100000000C9431000C9443000C9443000C94430076
:100010000C9443000C9443000C9443000C94430054
:100020000C9443000C9443000C9443000C94430044
:100030000C9443000C94E2000C9434010C940B01DA
:100040000C9443000C9443000C9443000C94430024
:100050000C94430003020102050207020B0209028D
:100060000D0211241FBECFE5D8E0DEBFCDBF20E0DA
:10007000A0E6B0E001C01D92A837B207E1F70E94E8
:10008000BE000C946F040C9400001DB81EB8809143
:100090006000811168C080916100882319F081306F
:1000A00041F00AC08DB180618DB987B3806B87BB89
:1000B00003C087B3806487BB80916300811103C054
:1000C0008DB180628DB980916500811103C08DB1C1
:1000D00080688DB980916200823041F0833069F090
:1000E000813089F48DB184608DB90DC08DB1886087
:1000F0008DB988B3806888BB06C08DB18A608DB920
:1001000088B3806888BB809164008330B9F028F49C
:10011000882349F0823059F023C08530B9F090F03F
:100120008630D9F01DC08EB181608EB919C08DB1F5
:1001300081608DB98EB181608EB912C08DB1816040
:100140008DB90EC08DB183608DB90AC08DB1836049
:100150008DB98EB181608EB903C08DB183608DB9C8
:100160008DB180648DB908958FB9769B03C081E00D
:1001700080936600779BFECF8FB10895E0E6F0E0B4
:10018000108281E08183858384831282E7E6F0E038
:1001900093E090838183158294831282138280E896
:1001A00095E2A0E0B0E087839087A187B2870E94A4
:1001B0005D010E94450080E00E94B40090E00E9432
:1001C0005102F9CF1F920F920FB60F9211242F9365
:1001D0003F934F935F936F937F938F939F93AF93CF
:1001E000BF93EF93FF93E0917200F091730030970B
:1001F00009F00995FF91EF91BF91AF919F918F9178
:100200007F916F915F914F913F912F910F900FBE12
:100210000F901F9018951F920F920FB60F921124F6
:100220002F933F934F935F936F937F938F939F93FE
:10023000AF93BF93EF93FF93E0917600F091770037
:10024000309709F00995FF91EF91BF91AF919F9180
:100250008F917F916F915F914F913F912F910F906F
:100260000FBE0F901F9018951F920F920FB60F920E
:1002700011242F933F934F935F936F937F938F93AB
:100280009F93AF93BF93EF93FF93E0917400F0912E
:100290007500309709F00995FF91EF91BF91AF91EB
:1002A0009F918F917F916F915F914F913F912F918E
:1002B0000F900FBE0F901F901895CF92DF92EF9284
:1002C000FF920F931F93CF93DF938091670082304B
:1002D00051F0833031F0813011F0D0E005C0D8E02A
:1002E00003C0D8E101C0D0E180916800813041F1C4
:1002F00020F0823009F447C06AC060916E007091AE
:100300006F0080917000909171000E946E0320E058
:1003100030E040E851E40E94FC039B01AC0160E046
:1003200074E284E799E40E94CD0220E030E040E0EE
:100330005FE30E9460026B017C01C0E010E04FC0EF
:1003400060916E0070916F008091700090917100CB
:100350000E946E0320E030E040E051E40E94FC0384
:100360009B01AC0160E074E284E799E40E94CD0255
:1003700020E030E040E05FE30E9460026B017C011E
:10038000C0E012E02CC007E610E0F801678170853C
:10039000818592850E946E039B01AC010E946102DF
:1003A0009B01AC0160E074E284E799E40E94CD0215
:1003B00020E030E040E05FE30E9460026B017C01DE
:1003C000F8018681813049F0C6E010E008C0C12CF8
:1003D000D12C7601C0E010E002C0C7E010E08091AF
:1003E0006900813009F41160E0916A008E2F90E07D
:1003F000FC013197E730F10588F4E65DFF4F0C947E
:100400006904D0680BC0D06409C0D06207C0D06C4A
:1004100005C0D06A03C0D06601C0D06E80916B0069
:10042000823059F018F4813031F00DC0833039F04A
:10043000843039F008C0C26006C0C46004C0C66021
:1004400002C0C660D46080916C00833079F028F4DB
:10045000813041F0823041F00EC0843049F0853067
:1004600049F009C0C86007C0C06205C0C86203C0C7
:10047000C06301C0C863C701B6010E943F0370BDDD
:10048000C701B6010E943F0369B91BB9C0BDDAB903
:10049000DF91CF911F910F91FF90EF90DF90CF9060
:1004A00008955D9BFECF20916B00243039F42AB172
:1004B0002E7FAC0144275170252B2AB98CB90895A1
:1004C0005058BB27AA270E9478020C94C2030E94AE
:1004D000B40338F00E94BB0320F039F49F3F19F4B5
:1004E00026F40C94B1030EF4E095E7FB0C94AB03F7
:1004F000E92F0E94D30358F3BA17620773078407E2
:10050000950720F079F4A6F50C94F5030EF4E09528
:100510000B2EBA2FA02D0B01B90190010C01CA01BD
:10052000A0011124FF27591B99F0593F50F4503E68
:1005300068F11A16F040A22F232F342F4427585F5A
:10054000F3CF469537952795A795F0405395C9F772
:100550007EF41F16BA0B620B730B840BBAF091502A
:10056000A1F0FF0FBB1F661F771F881FC2F70EC0C9
:10057000BA0F621F731F841F48F48795779567959C
:10058000B795F7959E3F08F0B0CF9395880F08F088
:100590009927EE0F9795879508950E94E1020C9494
:1005A000C2030E94BB0358F00E94B40340F029F438
:1005B0005F3F29F00C94AB0351110C94F6030C949B
:1005C000B1030E94D30368F39923B1F3552391F348
:1005D000951B550BBB27AA2762177307840738F0B2
:1005E0009F5F5F4F220F331F441FAA1FA9F335D00F
:1005F0000E2E3AF0E0E832D091505040E695001CC3
:10060000CAF72BD0FE2F29D0660F771F881FBB1F7C
:10061000261737074807AB07B0E809F0BB0B802D5A
:10062000BF01FF2793585F4F3AF09E3F510578F086
:100630000C94AB030C94F6035F3FE4F3983ED4F3C1
:10064000869577956795B795F7959F5FC9F7880F5A
:10065000911D9695879597F90895E1E0660F771FAC
:10066000881FBB1F621773078407BA0720F0621B3D
:10067000730B840BBA0BEE1F88F7E09508950E9468
:10068000DB0388F09F5798F0B92F9927B751B0F046
:10069000E1F0660F771F881F991F1AF0BA95C9F706
:1006A00014C0B13091F00E94F503B1E008950C94AC
:1006B000F503672F782F8827B85F39F0B93FCCF35F
:1006C000869577956795B395D9F73EF49095809583
:1006D000709561957F4F8F4F9F4F0895E89409C0A3
:1006E00097FB3EF490958095709561957F4F8F4F65
:1006F0009F4F9923A9F0F92F96E9BB279395F6957B
:10070000879577956795B795F111F8CFFAF4BB0FF8
:1007100011F460FF1BC06F5F7F4F8F4F9F4F16C05C
:10072000882311F096E911C0772321F09EE8872FE6
:10073000762F05C0662371F096E8862F70E060E0A2
:100740002AF09A95660F771F881FDAF7880F96951B
:10075000879597F9089597F99F6780E870E060E0C2
:1007600008959FEF80EC089500240A94161617064A
:1007700018060906089500240A9412161306140692
:1007800005060895092E0394000C11F4882352F0F5
:10079000BB0F40F4BF2B11F460FF04C06F5F7F4FAD
:1007A0008F4F9F4F089557FD9058440F551F59F094
:1007B0005F3F71F04795880F97FB991F61F09F3F4E
:1007C00079F087950895121613061406551FF2CF77
:1007D0004695F1DF08C0161617061806991FF1CFC7
:1007E00086957105610508940895E894BB276627EE
:1007F0007727CB0197F908950E940F040C94C20348
:100800000E94B40338F00E94BB0320F0952311F03E
:100810000C94AB030C94B10311240C94F6030E94C6
:10082000D30370F3959FC1F3950F50E0551F629F5E
:10083000F001729FBB27F00DB11D639FAA27F00D39
:10084000B11DAA1F649F6627B00DA11D661F829F60
:100850002227B00DA11D621F739FB00DA11D621F45
:10086000839FA00D611D221F749F3327A00D611D62
:10087000231F849F600D211D822F762F6A2F112444
:100880009F5750409AF0F1F088234AF0EE0FFF1F77
:10089000BB1F661F771F881F91505040A9F79E3FCE
:1008A000510580F00C94AB030C94F6035F3FE4F326
:1008B000983ED4F3869577956795B795F795E79524
:1008C0009F5FC1F7FE2B880F911D9695879597F92D
:1008D0000895EE0FFF1F0590F491E02D0994F89410
:0208E000FFCF48
:00000001FF
