S0110000554152545F546573742E73726563D8
S11300000C9431000C9443000C9443000C94430072
S11300100C9443000C9443000C9443000C94430050
S11300200C9443000C9443000C9443000C94430040
S11300300C9443000C945C000C94AE000C9485006A
S11300400C9443000C9443000C9443000C94430020
S11300500C944300790177017B017D0181017F01CB
S1130060830111241FBECFE5D8E0DEBFCDBF20E061
S1130070A0E6B0E001C01D92AF36B207E1F70E94DE
S113008045000C94F5030C940000E0E6F0E080E8F1
S113009095E29087878383E08483808381E08183F2
S11300A01582128213820E94D70081E690E00E949A
S11300B0C7010E94D601FACF1F920F920FB60F927A
S11300C011242F933F934F935F936F937F938F9359
S11300D09F93AF93BF93EF93FF93E0916900F091E7
S11300E06A00309709F00995FF91EF91BF91AF91A4
S11300F09F918F917F916F915F914F913F912F913C
S11301000F900FBE0F901F9018951F920F920FB66D
S11301100F9211242F933F934F935F936F937F9389
S11301208F939F93AF93BF93EF93FF93E0916D00F1
S1130130F0916E00309709F00995FF91EF91BF910E
S1130140AF919F918F917F916F915F914F913F916B
S11301502F910F900FBE0F901F9018951F920F9222
S11301600FB60F9211242F933F934F935F936F9386
S11301707F938F939F93AF93BF93EF93FF93E091FC
S11301806B00F0916C00309709F00995FF91EF91A5
S1130190BF91AF919F918F917F916F915F914F919B
S11301A03F912F910F900FBE0F901F901895CF92F3
S11301B0DF92EF92FF920F931F93CF93DF9380917F
S11301C06000823051F0833031F0813011F0D0E0A2
S11301D005C0D8E003C0D8E101C0D0E1809161003E
S11301E0813031F120F0823009F443C066C060915F
S11301F067007091680080E090E00E94F40220E0C3
S113020030E040E851E40E9482039B01AC0160E0CD
S113021074E284E799E40E94530220E030E040E075
S11302205FE30E94E6016B017C01C0E010E04DC079
S1130230609167007091680080E090E00E94F40291
S113024020E030E040E051E40E9482039B01AC01D5
S113025060E074E284E799E40E94530220E030E015
S113026040E05FE30E94E6016B017C01C0E012E024
S11302702CC000E610E0F8016781708580E090E012
S11302800E94F4029B01AC010E94E7019B01AC01B6
S113029060E074E284E799E40E94530220E030E0D5
S11302A040E05FE30E94E6016B017C01F801868176
S11302B0813049F0C6E010E008C0C12CD12C760191
S11302C0C0E010E002C0C7E010E08091620081301D
S11302D009F41160E09163008E2F90E0FC013197E6
S11302E0E730F10588F4E65DFF4F0C94EF03D06826
S11302F00BC0D06409C0D06207C0D06C05C0D06AFE
S113030003C0D06601C0D06E80916400823059F081
S113031018F4813031F00DC0833039F0843039F075
S113032008C0C26006C0C46004C0C66002C0C66023
S1130330D46080916500833079F028F4813041F0F5
S1130340823041F00EC0843049F0853049F009C054
S1130350C86007C0C06205C0C86203C0C06301C0F2
S1130360C863DAB9C701B6010E94C50270BDC701EE
S1130370B6010E94C50269B91BB9C0BDDF91CF9116
S11303801F910F91FF90EF90DF90CF9008955D9BA8
S1130390FECF20916400243039F42AB12E7FAC01C1
S11303A044275170252B2AB98CB908955F9BFECF41
S11303B08BB180916400843021F48AB180E090E0B4
S11303C002C080E090E02CB1822B08955058BB27E6
S11303D0AA270E94FE010C9448030E943A0338F0B5
S11303E00E94410320F039F49F3F19F426F40C9441
S11303F037030EF4E095E7FB0C943103E92F0E94D8
S1130400590358F3BA17620773078407950720F056
S113041079F4A6F50C947B030EF4E0950B2EBA2F19
S1130420A02D0B01B90190010C01CA01A0011124F6
S1130430FF27591B99F0593F50F4503E68F11A16A2
S1130440F040A22F232F342F4427585FF3CF469533
S113045037952795A795F0405395C9F77EF41F1655
S1130460BA0B620B730B840BBAF09150A1F0FF0F1F
S1130470BB1F661F771F881FC2F70EC0BA0F621F0B
S1130480731F841F48F4879577956795B795F795FB
S11304909E3F08F0B0CF9395880F08F09927EE0F90
S11304A09795879508950E9467020C9448030E94CB
S11304B0410358F00E943A0340F029F45F3F29F0C9
S11304C00C94310351110C947C030C9437030E9457
S11304D0590368F39923B1F3552391F3951B550BF5
S11304E0BB27AA2762177307840738F09F5F5F4F03
S11304F0220F331F441FAA1FA9F335D00E2E3AF042
S1130500E0E832D091505040E695001CCAF72BD059
S1130510FE2F29D0660F771F881FBB1F26173707AA
S11305204807AB07B0E809F0BB0B802DBF01FF27DC
S113053093585F4F3AF09E3F510578F00C94310385
S11305400C947C035F3FE4F3983ED4F3869577954F
S11305506795B795F7959F5FC9F7880F911D969595
S1130560879597F90895E1E0660F771F881FBB1FF1
S1130570621773078407BA0720F0621B730B840B9E
S1130580BA0BEE1F88F7E09508950E94610388F086
S11305909F5798F0B92F9927B751B0F0E1F0660F43
S11305A0771F881F991F1AF0BA95C9F714C0B13084
S11305B091F00E947B03B1E008950C947B03672FB4
S11305C0782F8827B85F39F0B93FCCF386957795B3
S11305D06795B395D9F73EF490958095709561959C
S11305E07F4F8F4F9F4F0895E89409C097FB3EF4C7
S11305F090958095709561957F4F8F4F9F4F99236C
S1130600A9F0F92F96E9BB279395F69587957795E9
S11306106795B795F111F8CFFAF4BB0F11F460FFA9
S11306201BC06F5F7F4F8F4F9F4F16C0882311F001
S113063096E911C0772321F09EE8872F762F05C015
S1130640662371F096E8862F70E060E02AF09A95B0
S1130650660F771F881FDAF7880F9695879597F9A5
S1130660089597F99F6780E870E060E008959FEF30
S113067080EC089500240A94161617061806090635
S1130680089500240A941216130614060506089504
S1130690092E0394000C11F4882352F0BB0F40F48C
S11306A0BF2B11F460FF04C06F5F7F4F8F4F9F4FCC
S11306B0089557FD9058440F551F59F05F3F71F04E
S11306C04795880F97FB991F61F09F3F79F08795B5
S11306D00895121613061406551FF2CF4695F1DF3E
S11306E008C0161617061806991FF1CF86957105CE
S11306F0610508940895E894BB2766277727CB0102
S113070097F908950E9495030C9448030E943A03B4
S113071038F00E94410320F0952311F00C9431032A
S11307200C94370311240C947C030E94590370F336
S1130730959FC1F3950F50E0551F629FF001729F82
S1130740BB27F00DB11D639FAA27F00DB11DAA1F91
S1130750649F6627B00DA11D661F829F2227B00DDE
S1130760A11D621F739FB00DA11D621F839FA00D69
S1130770611D221F749F3327A00D611D231F849FB9
S1130780600D211D822F762F6A2F11249F57504010
S11307909AF0F1F088234AF0EE0FFF1FBB1F661F8B
S11307A0771F881F91505040A9F79E3F510580F054
S11307B00C9431030C947C035F3FE4F3983ED4F330
S11307C0869577956795B795F795E7959F5FC1F7F8
S11307D0FE2B880F911D9695879597F90895EE0F36
S11107E0FF1F0590F491E02D0994F894FFCFCB
S9030000FC
