S00B00004144432E7372656351
S11300000C942A000C9447000C9447000C9447006D
S11300100C9447000C9447000C9447000C94470040
S11300200C9447000C9447000C9447000C94470030
S11300300C9447000C9447000C9447000C94470020
S11300400C9447000C9447000C9447000C94470010
S11300500C94470011241FBECFE5D8E0DEBFCDBF0E
S113006010E0A0E6B0E0EAE7F7E002C005900D92E8
S1130070A437B107D9F720E0A4E7B0E001C01D928E
S1130080A837B207E1F70E9496010C94BB030C94C5
S113009000001ABA86B1876886B987B1806487B9C7
S11300A080917600813019F486B1806886B9809198
S11300B077008330A1F028F4813049F0823059F080
S11300C01DC08530A1F078F08630A9F017C086B144
S11300D0826086B913C086B1836086B90FC086B1C9
S11300E0846086B90BC086B1856086B907C086B1C5
S11300F0866086B903C086B1876086B98091740032
S1130100813019F0823029F007C087B1806487B943
S113011003C087B1806C87B980917500811103C0D9
S113012087B1806287B9089597B18F70982B97B97A
S113013086B1806486B9349BFECF8BE49DE1019740
S1130140F1F700C0000024B185B190E0982F882712
S1130150820F911D089595B3997F95BB98B39F70B5
S1130160282F207F922B98BB95B3986095BB2FEFD7
S113017030E792E0215030409040E1F700C00000A9
S113018095B3977F95BB28B330E1839FC0011124B9
S1130190922F9F70892B88BB85B3886085BB8FEFB6
S11301A090E722E0815090402040E1F700C0000039
S11301B085B3877F85BB0895CF93DF93C82FD62F50
S11301C0813021F48FE7860F0E94AB00C23021F406
S11301D08FEB8D0F0E94AB00DF91CF91089595B303
S11301E09B7F95BB95B3926095BB98B39F70282F66
S11301F0207F922B98BB95B3986095BB2FEF30E787
S113020092E0215030409040E1F700C0000095B3E7
S1130210977F95BB28B330E1839FC0011124922FAF
S11302209F70892B88BB85B3886085BB8FEF90E76F
S113023022E0815090402040E1F700C0000085B3E7
S1130240877F85BB089581E00E94AB00089584B345
S11302508E6084BB85B3817F85BB8FEF87BB80E0D5
S11302600E94EF002FEF86E791E0215080409040FC
S1130270E1F700C000008FEC97E00197F1F700C0B0
S113028000000E94230183E00E94AB008FE19EE402
S11302900197F1F700C0000083E00E94AB0087E5FE
S11302A092E00197F1F700C0000083E00E94AB00E8
S11302B082E00E94AB0088E20E94AB0086E00E94CC
S11302C0AB0080E80E94AB008CE00E94AB00089574
S11302D0EF92FF920F931F93CF93DF937C01C0E0C3
S11302E0D0E016C00E94EF00C031D10529F461E0CE
S11302F081E00E94DC000BC000521109023011059C
S113030030F40E94230161E081E00E94DC00219628
S11303108E01F701EC0FFD1F80818111E3CFDF9186
S1130320CF911F910F91FF90EF900895CF93DF939A
S113033000D000D01F92CDB7DEB7E4E7F0E081E053
S1130340828396E09383818380830E9449000E9484
S1130350270161E081E00E94DC0080E690E00E94D9
S1130360680161E082E00E94DC0080E00E94940069
S1130370BC01990F880B990B0E948D022FE239EF73
S11303804FE95BE30E9419032AE037ED43E25CE3A3
S11303900E94E3010E945502DC01CB014AE0BE0148
S11303A06F5F7F4F0E948603CE0101960E94680111
S11303B081E790E00E94680183EC99E00197F1F7EE
S11303C000C00000CECF0E94F7010C94DF020E940F
S11303D0D80258F00E94D10240F029F45F3F29F07E
S11303E00C94C80251110C9413030C94CE020E9475
S11303F0F00268F39923B1F3552391F3951B550B40
S1130400BB27AA2762177307840738F09F5F5F4FE3
S1130410220F331F441FAA1FA9F335D00E2E3AF022
S1130420E0E832D091505040E695001CCAF72BD03A
S1130430FE2F29D0660F771F881FBB1F261737078B
S11304404807AB07B0E809F0BB0B802DBF01FF27BD
S113045093585F4F3AF09E3F510578F00C94C802D0
S11304600C9413035F3FE4F3983ED4F38695779599
S11304706795B795F7959F5FC9F7880F911D969576
S1130480879597F90895E1E0660F771F881FBB1FD2
S1130490621773078407BA0720F0621B730B840B7F
S11304A0BA0BEE1F88F7E09508950E945C026894E9
S11304B0B1110C94130308950E94F80288F09F5719
S11304C098F0B92F9927B751B0F0E1F0660F771F74
S11304D0881F991F1AF0BA95C9F714C0B13091F06A
S11304E00E941203B1E008950C941203672F782F31
S11304F08827B85F39F0B93FCCF38695779567952F
S1130500B395D9F73EF490958095709561957F4F9A
S11305108F4F9F4F0895E89409C097FB3EF4909540
S11305208095709561957F4F8F4F9F4F9923A9F0C8
S1130530F92F96E9BB279395F69587957795679557
S1130540B795F111F8CFFAF4BB0F11F460FF1BC09B
S11305506F5F7F4F8F4F9F4F16C0882311F096E92E
S113056011C0772321F09EE8872F762F05C06623DC
S113057071F096E8862F70E060E02AF09A95660F95
S1130580771F881FDAF7880F9695879597F908954E
S113059097F99F6780E870E060E008959FEF80EC32
S11305A0089500240A9416161706180609060895D5
S11305B000240A9412161306140605060895092E3B
S11305C00394000C11F4882352F0BB0F40F4BF2BAA
S11305D011F460FF04C06F5F7F4F8F4F9F4F0895EA
S11305E057FD9058440F551F59F05F3F71F04795E0
S11305F0880F97FB991F61F09F3F79F087950895C5
S1130600121613061406551FF2CF4695F1DF08C0E3
S1130610161617061806991FF1CF86957105610500
S113062008940895E894BB2766277727CB0197F9A8
S113063008950E942C030C94DF020E94D10238F02A
S11306400E94D80220F0952311F00C94C8020C9457
S1130650CE0211240C9413030E94F00270F3959FB0
S1130660C1F3950F50E0551F629FF001729FBB27A5
S1130670F00DB11D639FAA27F00DB11DAA1F649F41
S11306806627B00DA11D661F829F2227B00DA11DF4
S1130690621F739FB00DA11D621F839FA00D611D7A
S11306A0221F749F3327A00D611D231F849F600D9B
S11306B0211D822F762F6A2F11249F5750409AF0C4
S11306C0F1F088234AF0EE0FFF1FBB1F661F771F50
S11306D0881F91505040A9F79E3F510580F00C941B
S11306E0C8020C9413035F3FE4F3983ED4F3869559
S11306F077956795B795F795E7959F5FC1F7FE2BBB
S1130700880F911D9695879597F90895BB274A30D0
S113071031F4992322F4BDE2909581959F4F0C9476
S11307209203BB27FB015527AA27880F991FAA1FED
S1130730A41710F0A41B83955051B9F7A05DAA33F8
S113074008F0A95DA193009779F7B111B1931192C3
S1130750CB010C94AB03DC01FC01672F719177236F
S1130760E1F7329704C07C916D9370836291AE1768
S10D0770BF07C8F30895F894FFCF03
S113077A54656D7065726174757265206973203A87
S107078A0020000047
S9030000FC
