:100000000C942A000C943C000C943C000C943C0092
:100010000C943C000C943C000C943C000C943C0070
:100020000C943C000C943C000C943C000C943C0060
:100030000C943C000C943C000C943C000C943C0050
:100040000C943C000C943C000C943C000C943C0040
:100050000C943C0011241FBECFE5D8E0DEBFCDBF1D
:1000600020E0A0E6B0E001C01D92A736B207E1F79C
:100070000E94A5000C9439010C940000882319F00B
:10008000813029F0089588B38F7E88BB089588B3A6
:10009000806188BB0895E0E6F0E01082118283E081
:1000A000828381E0838392E09483858387B3806138
:1000B00087BB88B3806188BB0E94C0000895CF933E
:1000C000DF93C82FD62F80E00E943E0086E00E947A
:1000D0002F0181E00E943E0083ED90E30197F1F74C
:1000E00000C0000080E00E943E0082E00E942F01DC
:1000F0008D2F0E942F018C2F0E942F0181E00E94E2
:100100003E0083ED90E30197F1F700C00000DF911E
:10011000CF910895CF93C82F80E00E943E0083E0E6
:100120000E942F018C2F0E942F0180E00E942F013E
:10013000C82F81E00E943E0083ED90E30197F1F724
:1001400000C000008C2FCF9108950E944B0060E00A
:1001500070E085E590E00E945F0061E070E08AEA6F
:1001600090E00E945F0062E070E08EEE90E00E94FE
:100170005F0082E090E00E948A0080E090E00895B5
:100180001DB81EB880916000811168C08091610027
:10019000882319F0813041F00AC08DB180618DB99A
:1001A00087B3806B87BB03C087B3806487BB8091B4
:1001B0006300811103C08DB180628DB980916500AB
:1001C000811103C08DB180688DB980916200823049
:1001D00041F0833069F0813089F48DB184608DB94C
:1001E0000DC08DB188608DB988B3806888BB06C0AA
:1001F0008DB18A608DB988B3806888BB80916400B6
:100200008330B9F028F4882349F0823059F023C0B4
:100210008530B9F090F08630D9F01DC08EB1816084
:100220008EB919C08DB181608DB98EB181608EB9E2
:1002300012C08DB181608DB90EC08DB183608DB952
:100240000AC08DB183608DB98EB181608EB903C053
:100250008DB183608DB98DB180648DB908958FB9EA
:10026000769B03C081E080936600779BFECF8FB1C1
:060270000895F894FFCF91
:00000001FF
